{
  "contractName": "ERC721Metadata",
  "abi": [
    {
      "inputs": [
        {
          "internalType": "string",
          "name": "named",
          "type": "string"
        },
        {
          "internalType": "string",
          "name": "symbolified",
          "type": "string"
        }
      ],
      "stateMutability": "nonpayable",
      "type": "constructor"
    },
    {
      "inputs": [],
      "name": "name",
      "outputs": [
        {
          "internalType": "string",
          "name": "",
          "type": "string"
        }
      ],
      "stateMutability": "view",
      "type": "function"
    },
    {
      "inputs": [],
      "name": "symbol",
      "outputs": [
        {
          "internalType": "string",
          "name": "",
          "type": "string"
        }
      ],
      "stateMutability": "view",
      "type": "function"
    }
  ],
  "bytecode": "0x608060405234801561001057600080fd5b506040516105413803806105418339818101604052604081101561003357600080fd5b810190808051604051939291908464010000000082111561005357600080fd5b8382019150602082018581111561006957600080fd5b825186600182028301116401000000008211171561008657600080fd5b8083526020830192505050908051906020019080838360005b838110156100ba57808201518184015260208101905061009f565b50505050905090810190601f1680156100e75780820380516001836020036101000a031916815260200191505b506040526020018051604051939291908464010000000082111561010a57600080fd5b8382019150602082018581111561012057600080fd5b825186600182028301116401000000008211171561013d57600080fd5b8083526020830192505050908051906020019080838360005b83811015610171578082015181840152602081019050610156565b50505050905090810190601f16801561019e5780820380516001836020036101000a031916815260200191505b5060405250505081600090805190602001906101bb9291906101da565b5080600190805190602001906101d29291906101da565b505050610277565b828054600181600116156101000203166002900490600052602060002090601f016020900481019282601f1061021b57805160ff1916838001178555610249565b82800160010185558215610249579182015b8281111561024857825182559160200191906001019061022d565b5b509050610256919061025a565b5090565b5b8082111561027357600081600090555060010161025b565b5090565b6102bb806102866000396000f3fe608060405234801561001057600080fd5b50600436106100365760003560e01c806306fdde031461003b57806395d89b41146100be575b600080fd5b610043610141565b6040518080602001828103825283818151815260200191508051906020019080838360005b83811015610083578082015181840152602081019050610068565b50505050905090810190601f1680156100b05780820380516001836020036101000a031916815260200191505b509250505060405180910390f35b6100c66101e3565b6040518080602001828103825283818151815260200191508051906020019080838360005b838110156101065780820151818401526020810190506100eb565b50505050905090810190601f1680156101335780820380516001836020036101000a031916815260200191505b509250505060405180910390f35b606060008054600181600116156101000203166002900480601f0160208091040260200160405190810160405280929190818152602001828054600181600116156101000203166002900480156101d95780601f106101ae576101008083540402835291602001916101d9565b820191906000526020600020905b8154815290600101906020018083116101bc57829003601f168201915b5050505050905090565b606060018054600181600116156101000203166002900480601f01602080910402602001604051908101604052809291908181526020018280546001816001161561010002031660029004801561027b5780601f106102505761010080835404028352916020019161027b565b820191906000526020600020905b81548152906001019060200180831161025e57829003601f168201915b505050505090509056fea2646970667358221220ae9ff32be6d2f7c842fcc2484c2e39f2c52167025c3a9b8d10b20ba3bf35cbfd64736f6c634300060c0033",
  "source": "// SPDX-License-Identifier: MIT\npragma solidity >=0.4.22 <0.9.0;\n\n\ncontract ERC721Metadata{\n\n    string private _name;\n    string private _symbol;\n    //이정보를 kbird 생성자에게 넘길꺼임\n\n    constructor (string memory named, string memory symbolified)  public  {\n        // string 은 변수로받을때 memory로 받아야한다.\n        _name = named;\n        _symbol = symbolified;\n        \n    }\n\n    function name() external view returns(string memory) {\n        // extrtnal 외부 컨트렉트에서 접근가능한\n        // view 정보 제공만을할때 명시하는 키워드\n        return _name;\n    }\n\n    function symbol() external view returns(string memory) {\n    return _symbol;\n    }\n\n}",
  "sourcePath": "C:\\SSAFY\\BlockChain\\nft-marketplace-starter-kit-main\\src\\contracts\\ERC721Metadata.sol",
  "compiler": {
    "name": "solc",
    "version": "0.6.12+commit.27d51765.Emscripten.clang"
  },
  "schemaVersion": "3.0.20",
  "updatedAt": "2022-03-14T23:57:08.938Z",
  "devdoc": {
    "kind": "dev",
    "methods": {},
    "version": 1
  },
  "userdoc": {
    "kind": "user",
    "methods": {},
    "version": 1
  }
}