{
  "contractName": "ERC721Enumerable",
  "abi": [
    {
      "inputs": [],
      "stateMutability": "nonpayable",
      "type": "constructor"
    },
    {
      "anonymous": false,
      "inputs": [
        {
          "indexed": true,
          "internalType": "address",
          "name": "from",
          "type": "address"
        },
        {
          "indexed": true,
          "internalType": "address",
          "name": "to",
          "type": "address"
        },
        {
          "indexed": true,
          "internalType": "uint256",
          "name": "tokenId",
          "type": "uint256"
        }
      ],
      "name": "transfer",
      "type": "event"
    },
    {
      "inputs": [
        {
          "internalType": "address",
          "name": "_owner",
          "type": "address"
        }
      ],
      "name": "balanceOf",
      "outputs": [
        {
          "internalType": "uint256",
          "name": "",
          "type": "uint256"
        }
      ],
      "stateMutability": "view",
      "type": "function"
    },
    {
      "inputs": [
        {
          "internalType": "uint256",
          "name": "_tokenId",
          "type": "uint256"
        }
      ],
      "name": "ownerOf",
      "outputs": [
        {
          "internalType": "address",
          "name": "",
          "type": "address"
        }
      ],
      "stateMutability": "view",
      "type": "function"
    },
    {
      "inputs": [
        {
          "internalType": "uint256",
          "name": "index",
          "type": "uint256"
        }
      ],
      "name": "tokenByIndex",
      "outputs": [
        {
          "internalType": "uint256",
          "name": "",
          "type": "uint256"
        }
      ],
      "stateMutability": "view",
      "type": "function"
    },
    {
      "inputs": [
        {
          "internalType": "address",
          "name": "owner",
          "type": "address"
        },
        {
          "internalType": "uint256",
          "name": "index",
          "type": "uint256"
        }
      ],
      "name": "tokenOfOwnerByIndex",
      "outputs": [
        {
          "internalType": "uint256",
          "name": "",
          "type": "uint256"
        }
      ],
      "stateMutability": "view",
      "type": "function"
    },
    {
      "inputs": [],
      "name": "totalSupply",
      "outputs": [
        {
          "internalType": "uint256",
          "name": "",
          "type": "uint256"
        }
      ],
      "stateMutability": "view",
      "type": "function"
    }
  ],
  "bytecode": "0x608060405234801561001057600080fd5b50610541806100206000396000f3fe608060405234801561001057600080fd5b50600436106100575760003560e01c806318160ddd1461005c5780632f745c591461007a5780634f6ccce7146100dc5780636352211e1461011e57806370a0823114610176575b600080fd5b6100646101ce565b6040518082815260200191505060405180910390f35b6100c66004803603604081101561009057600080fd5b81019080803573ffffffffffffffffffffffffffffffffffffffff169060200190929190803590602001909291905050506101db565b6040518082815260200191505060405180910390f35b610108600480360360208110156100f257600080fd5b81019080803590602001909291905050506102b7565b6040518082815260200191505060405180910390f35b61014a6004803603602081101561013457600080fd5b8101908080359060200190929190505050610354565b604051808273ffffffffffffffffffffffffffffffffffffffff16815260200191505060405180910390f35b6101b86004803603602081101561018c57600080fd5b81019080803573ffffffffffffffffffffffffffffffffffffffff16906020019092919050505061041b565b6040518082815260200191505060405180910390f35b6000600380549050905090565b60006101e68361041b565b821061025a576040517f08c379a000000000000000000000000000000000000000000000000000000000815260040180806020018281038252601d8152602001807f6f776e657220696e646578206973206f7574206f6620626f756e64732100000081525060200191505060405180910390fd5b600560008473ffffffffffffffffffffffffffffffffffffffff1673ffffffffffffffffffffffffffffffffffffffff16815260200190815260200160002082815481106102a457fe5b9060005260206000200154905092915050565b60006102c16101ce565b8210610335576040517f08c379a000000000000000000000000000000000000000000000000000000000815260040180806020018281038252601e8152602001807f676c6f62616c20696e646578206973206f7574206f6620626f756e647321000081525060200191505060405180910390fd5b6003828154811061034257fe5b90600052602060002001549050919050565b60008060008084815260200190815260200160002060009054906101000a900473ffffffffffffffffffffffffffffffffffffffff169050600073ffffffffffffffffffffffffffffffffffffffff168173ffffffffffffffffffffffffffffffffffffffff161415610412576040517f08c379a00000000000000000000000000000000000000000000000000000000081526004018080602001828103825260228152602001806104ea6022913960400191505060405180910390fd5b80915050919050565b60008073ffffffffffffffffffffffffffffffffffffffff168273ffffffffffffffffffffffffffffffffffffffff1614156104a2576040517f08c379a00000000000000000000000000000000000000000000000000000000081526004018080602001828103825260228152602001806104ea6022913960400191505060405180910390fd5b600160008373ffffffffffffffffffffffffffffffffffffffff1673ffffffffffffffffffffffffffffffffffffffff16815260200190815260200160002054905091905056fe6f776e657220717565727920666f72206e6f6e2d6578697374656e7420746f6b656ea2646970667358221220a1b7312e1e87048768d554c650133c26fe099dad503071e69bd89a079d782a4a64736f6c634300060c0033",
  "source": "// SPDX-License-Identifier: MIT\npragma solidity >=0.4.22 <0.9.0;\n\n\nimport './ERC721.sol';\n\n\ncontract ERC721Enumerable is  ERC721 {\n\n    uint256[] private _allTokens;\n\n    // mapping from tokenId to position in _allTokens array\n        mapping(uint256 => uint256) private _allTokensIndex;\n\n    // mapping of owner to list of all owner token ids\n        mapping(address => uint256[]) private _ownedTokens;\n\n    // mapping from token ID to index of the owner tokens list \n        mapping(uint256 => uint256) private _ownedTokensIndex;\n\n    \n    constructor() public{\n      \n    }\n\n    function _mint(address to, uint256 tokenId) internal override(ERC721) {// 객체지향적인 코딩\n        super._mint(to, tokenId);//상위 함수 호출\n        //mint = 토큰을 추가하고 소유자에게 그 토큰을 추가\n        // 2 things! A. add tokens to the owner\n        // B. all tokens to our totalsuppy - to allTokens\n        // 모든 토큰을 관리한다.\n\n        //토큰을 mint 하고 관리한다.\n        _addTokensToAllTokenEnumeration(tokenId); \n        _addTokensToOwnerEnumeration(to, tokenId);\n    }\n\n    // add tokens to the _alltokens array and set the position of the tokens indexes\n    function _addTokensToAllTokenEnumeration(uint256 tokenId) private {\n        //mint에서 호출에서 저장할것임\n\n        _allTokensIndex[tokenId] = _allTokens.length;\n        //해당토큰이 몇번째 토큰?\n        _allTokens.push(tokenId);\n        //토큰을 배열에 저장 \n    }\n \n    function _addTokensToOwnerEnumeration(address to, uint256 tokenId) private {\n        // EXERCISE - CHALLENGE - DO THESE THREE THINGS:\n        // 1. add address and token id to the _ownedTokens\n        // 2. ownedTokensIndex tokenId set to address of \n        // ownedTokens position\n        // 3. we want to execute the function with minting\n        //소유자의 인덱스에 토큰ID저장\n        _ownedTokensIndex[tokenId] = _ownedTokens[to].length;\n        //소유자에게 토큰을 추가\n        _ownedTokens[to].push(tokenId);   \n        //배열을 매핑해놓음 to를 쓰면 배열을 리턴하고있음\n    }\n\n    // two functions - one that returns tokenByIndex and \n    // another one that returns tokenOfOwnerByIndex\n    function tokenByIndex(uint256 index) public view returns(uint256) {\n        // 전체에서 index로 tokenid 반환\n        // make sure that the index is not out of bounds of the total supply \n        require(index < totalSupply(), 'global index is out of bounds!');\n        // 범위 조건 검사\n\n        // return \n        return _allTokens[index];\n    }\n\n    function tokenOfOwnerByIndex(address owner, uint index) public view returns(uint256) {\n        // 주인배열에서 index로 tokenid 반환\n        // totalSupply() 이 아닌 balanceOf로 해당 계정만 확인\n        require(index < balanceOf(owner),'owner index is out of bounds!');\n        \n        return _ownedTokens[owner][index];  \n        //_ownedTokens[owner]배열에서(mapping(address => uint256[])) [index]번째\n    }\n\n    // return the total supply of the _allTokens array\n    function totalSupply() public view returns(uint256) {\n        return _allTokens.length;\n    }\n\n}",
  "sourcePath": "C:\\SSAFY\\BlockChain\\nft-marketplace-starter-kit-main\\src\\contracts\\ERC721Enumerable.sol",
  "compiler": {
    "name": "solc",
    "version": "0.6.12+commit.27d51765.Emscripten.clang"
  },
  "schemaVersion": "3.0.20",
  "updatedAt": "2022-03-14T23:57:08.936Z",
  "devdoc": {
    "kind": "dev",
    "methods": {
      "balanceOf(address)": {
        "details": "NFTs assigned to zero address are considered invalid, and queries  about them do throw.",
        "params": {
          "_owner": "The identifier for an NFT"
        },
        "returns": {
          "_0": "The address of the owner of the NFT// 이것들머임??"
        }
      },
      "ownerOf(uint256)": {
        "details": "NFTs assigned to zero address are considered invalid, and queries  about them do throw.",
        "params": {
          "_tokenId": "The identifier for an NFT"
        },
        "returns": {
          "_0": "The address of the owner of the NFT"
        }
      }
    },
    "version": 1
  },
  "userdoc": {
    "kind": "user",
    "methods": {
      "balanceOf(address)": {
        "notice": "Find the owner of an NFT"
      },
      "ownerOf(uint256)": {
        "notice": "Find the owner of an NFT"
      }
    },
    "version": 1
  }
}